{
  "contractName": "NewBorn",
  "abi": [
    {
      "constant": true,
      "inputs": [],
      "name": "ownerAddress",
      "outputs": [
        {
          "name": "",
          "type": "address"
        }
      ],
      "payable": false,
      "stateMutability": "view",
      "type": "function"
    },
    {
      "inputs": [],
      "payable": false,
      "stateMutability": "nonpayable",
      "type": "constructor"
    },
    {
      "anonymous": false,
      "inputs": [
        {
          "indexed": false,
          "name": "id",
          "type": "int256"
        },
        {
          "indexed": false,
          "name": "phoneNumber",
          "type": "bytes"
        },
        {
          "indexed": false,
          "name": "newBornData",
          "type": "bytes"
        }
      ],
      "name": "evNewBornAdded",
      "type": "event"
    },
    {
      "constant": false,
      "inputs": [
        {
          "name": "newwriter",
          "type": "address"
        }
      ],
      "name": "allowNewDataWriter",
      "outputs": [],
      "payable": false,
      "stateMutability": "nonpayable",
      "type": "function"
    },
    {
      "constant": false,
      "inputs": [
        {
          "name": "writeraddr",
          "type": "address"
        },
        {
          "name": "isactive",
          "type": "bool"
        }
      ],
      "name": "changeDataWriter",
      "outputs": [],
      "payable": false,
      "stateMutability": "nonpayable",
      "type": "function"
    },
    {
      "constant": false,
      "inputs": [
        {
          "name": "newbornId",
          "type": "int256"
        },
        {
          "name": "phoneNumber_",
          "type": "bytes"
        },
        {
          "name": "newBornData_",
          "type": "bytes"
        }
      ],
      "name": "addNewborn",
      "outputs": [],
      "payable": false,
      "stateMutability": "nonpayable",
      "type": "function"
    }
  ],
  "bytecode": "0x608060405234801561001057600080fd5b5033600160006101000a81548173ffffffffffffffffffffffffffffffffffffffff021916908373ffffffffffffffffffffffffffffffffffffffff160217905550600080819055506106f0806100686000396000f3fe608060405234801561001057600080fd5b506004361061004c5760003560e01c8063369b13b414610051578063663610ee146100a15780638f84aa09146100e55780639463f73d1461012f575b600080fd5b61009f6004803603604081101561006757600080fd5b81019080803573ffffffffffffffffffffffffffffffffffffffff16906020019092919080351515906020019092919050505061028b565b005b6100e3600480360360208110156100b757600080fd5b81019080803573ffffffffffffffffffffffffffffffffffffffff16906020019092919050505061033d565b005b6100ed6103ef565b604051808273ffffffffffffffffffffffffffffffffffffffff1673ffffffffffffffffffffffffffffffffffffffff16815260200191505060405180910390f35b6102896004803603606081101561014557600080fd5b81019080803590602001909291908035906020019064010000000081111561016c57600080fd5b82018360208201111561017e57600080fd5b803590602001918460018302840111640100000000831117156101a057600080fd5b91908080601f016020809104026020016040519081016040528093929190818152602001838380828437600081840152601f19601f8201169050808301925050505050505091929192908035906020019064010000000081111561020357600080fd5b82018360208201111561021557600080fd5b8035906020019184600183028401116401000000008311171561023757600080fd5b91908080601f016020809104026020016040519081016040528093929190818152602001838380828437600081840152601f19601f820116905080830192505050505050509192919290505050610415565b005b600160009054906101000a900473ffffffffffffffffffffffffffffffffffffffff1673ffffffffffffffffffffffffffffffffffffffff163373ffffffffffffffffffffffffffffffffffffffff1614156103395780600260008473ffffffffffffffffffffffffffffffffffffffff1673ffffffffffffffffffffffffffffffffffffffff16815260200190815260200160002060006101000a81548160ff0219169083151502179055505b5050565b600160009054906101000a900473ffffffffffffffffffffffffffffffffffffffff1673ffffffffffffffffffffffffffffffffffffffff163373ffffffffffffffffffffffffffffffffffffffff1614156103ec576001600260008373ffffffffffffffffffffffffffffffffffffffff1673ffffffffffffffffffffffffffffffffffffffff16815260200190815260200160002060006101000a81548160ff0219169083151502179055505b50565b600160009054906101000a900473ffffffffffffffffffffffffffffffffffffffff1681565b60011515600260003373ffffffffffffffffffffffffffffffffffffffff1673ffffffffffffffffffffffffffffffffffffffff16815260200190815260200160002060009054906101000a900460ff1615151461047257600080fd5b61047a610605565b828160000181905250818160200181905250806003600086815260200190815260200160002060008201518160000190805190602001906104bc92919061061f565b5060208201518160010190805190602001906104d992919061061f565b5090505060008081548092919060010191905055507f92f8188fbd7fe4a1d2198626f6012023df3742530803c9d5cac53635b7279956848484604051808481526020018060200180602001838103835285818151815260200191508051906020019080838360005b8381101561055c578082015181840152602081019050610541565b50505050905090810190601f1680156105895780820380516001836020036101000a031916815260200191505b50838103825284818151815260200191508051906020019080838360005b838110156105c25780820151818401526020810190506105a7565b50505050905090810190601f1680156105ef5780820380516001836020036101000a031916815260200191505b509550505050505060405180910390a150505050565b604051806040016040528060608152602001606081525090565b828054600181600116156101000203166002900490600052602060002090601f016020900481019282601f1061066057805160ff191683800117855561068e565b8280016001018555821561068e579182015b8281111561068d578251825591602001919060010190610672565b5b50905061069b919061069f565b5090565b6106c191905b808211156106bd5760008160009055506001016106a5565b5090565b9056fea165627a7a723058202aeb57afae578c82bb13576c893d344ce312e45d3d6901b9b7a418afee969f390029",
  "source": "pragma solidity >=0.4.21 <0.6.0;\n\ncontract NewBorn {\n  \n  struct sNewBornBata {\n      bytes phoneNumber;\n      bytes newBornData;\n  }\n  \n  int numNewBorn;\n\n  address public ownerAddress;\n  mapping (address => bool) mapAllowedAdresses;\n  mapping (int => sNewBornBata) mapIdNewBornData;\n  \n  \n  event evNewBornAdded(int id, bytes phoneNumber, bytes newBornData);\n\n  // This is the constructor whose code is run only when the contract is created.\n  constructor() public {\n    ownerAddress = msg.sender;\n    numNewBorn = 0;\n  }\n\n  modifier onlyOwner() {\n      if (msg.sender == ownerAddress) _;\n  }\n\n  function allowNewDataWriter(address newwriter) public onlyOwner {\n      mapAllowedAdresses[newwriter] = true;\n  }\n\n  function changeDataWriter(address writeraddr, bool isactive) public onlyOwner {\n      mapAllowedAdresses[writeraddr] = isactive;\n  }\n\n  function addNewborn(int newbornId,  bytes memory phoneNumber_, bytes memory newBornData_) public {\n\n      require(mapAllowedAdresses[msg.sender] == true);\n\n      sNewBornBata memory nbd;\n      nbd.phoneNumber = phoneNumber_;\n      nbd.newBornData = newBornData_;\n      mapIdNewBornData[newbornId] = nbd;\n      numNewBorn++;\n\n      emit evNewBornAdded(newbornId,phoneNumber_,newBornData_);\n  }\n}",
  "sourcePath": "c:/HackaUnicef/contracts/NewBorn.sol",
  "compiler": {
    "name": "solc",
    "version": "0.5.8+commit.23d335f2.Emscripten.clang"
  },
  "schemaVersion": "3.0.11",
  "updatedAt": "2019-09-29T11:00:08.953Z",
  "devdoc": {
    "methods": {}
  },
  "userdoc": {
    "methods": {}
  }
}